:020000040800F2
:1000000000000320C5100008912C0008932C000864
:10001000952C0008972C0008992C0008000000007F
:10002000000000000000000000000000A1830008A4
:100030009B2C00080000000031840008BF7C0008F1
:1000400015110008151100081511000815110008F8
:1000500015110008151100081511000815110008E8
:1000600015110008151100081511000815110008D8
:1000700015110008151100081511000815110008C8
:1000800015110008151100081511000815110008B8
:1000900015110008151100081511000815110008A8
:1000A0001511000815110008151100081511000898
:1000B0001511000815110008151100081511000888
:1000C0001511000815110008151100081511000878
:1000D0001511000815110008151100081511000868
:1000E0001511000815110008151100081511000858
:1000F0001511000815110008151100081511000848
:100100001511000815110008151100081511000837
:1001100015110008151100089D2C00081511000884
:100120001511000815110008151100081511000817
:100130001511000815110008151100081511000807
:1001400015110008151100081511000815110008F7
:1001500015110008151100081511000815110008E7
:1001600015110008151100081511000815110008D7
:1001700015110008151100081511000800000000F5
:1001800015110008151100081511000815110008B7
:1001900015110008151100081511000815110008A7
:0C01A000A92C000815110008B52C00085F
:1001B00010B5054C237833B9044B13B10448AFF3A1
:1001C00000800123237010BDC00C0020000000003F
:1001D0008855040808B5034B1BB103490348AFF326
:1001E000008008BD00000000C40C002088550408F1
:1001F00010F8012B11F8013B012A28BF9A42F7D0D1
:10020000D01A70470000000000000000000000004D
:1002100001F0FF01102A2BDB10F0070F08D010F8B7
:10022000013B013A8B422DD010F0070F42B3F6D1BB
:10023000F0B441EA012141EA014122F007047FF0D4
:1002400000070023F0E80256083C85EA010586EA2B
:10025000010685FA47F5A3FA87F586FA47F6A5FA67
:1002600087F68EB9EED1F0BC01F0FF0102F0070273
:1002700032B110F8013B013A83EA010313B1F8D11E
:100280000020704701387047002D06BF35460338FF
:10029000073815F0010F07D1013015F4807F02BF38
:1002A000013015F4C03F0130F0BC0138704700BF89
:1002B000034613F8012B002AFBD1181A01387047A6
:1002C00081F0004102E000BF83F0004330B54FEA07
:1002D00041044FEA430594EA050F08BF90EA020F74
:1002E0001FBF54EA000C55EA020C7FEA645C7FEA07
:1002F000655C00F0E2804FEA5454D4EB5555B8BF2A
:100300006D420CDD2C4480EA020281EA030382EA9A
:10031000000083EA010180EA020281EA0303362D2C
:1003200088BF30BD11F0004F4FEA01314FF4801CFF
:100330004CEA113102D0404261EB410113F0004F11
:100340004FEA03334CEA133302D0524263EB4303C8
:1003500094EA050F00F0A780A4F10104D5F1200E66
:100360000DDB02FA0EFC22FA05F2801841F10001C1
:1003700003FA0EF2801843FA05F359410EE0A5F195
:1003800020050EF1200E012A03FA0EFC28BF4CF0C6
:10039000020C43FA05F3C01851EBE37101F000457C
:1003A00007D54FF0000EDCF1000C7EEB00006EEB89
:1003B0000101B1F5801F1BD3B1F5001F0CD3490813
:1003C0005FEA30004FEA3C0C04F101044FEA44526A
:1003D00012F5800F80F09A80BCF1004F08BF5FEAF1
:1003E000500C50F1000041EB045141EA050130BDD1
:1003F0005FEA4C0C404141EB0101013C28BFB1F5E3
:10040000801FE9D291F0000F04BF01460020B1FA2D
:1004100081F308BF2033A3F10B03B3F120020CDA00
:100420000C3208DD02F1140CC2F10C0201FA0CF0DE
:1004300021FA02F10CE002F11402D8BFC2F1200C43
:1004400001FA02F120FA0CFCDCBF41EA0C019040F9
:10045000E41AA2BF01EB0451294330BD6FEA040442
:100460001F3C1CDA0C340EDC04F11404C4F120022D
:1004700020FA04F001FA02F340EA030021FA04F33F
:1004800045EA030130BDC4F10C04C4F1200220FA96
:1004900002F001FA04F340EA0300294630BD21FAD4
:1004A00004F0294630BD94F0000F83F4801306BF9A
:1004B00081F480110134013D4EE77FEA645C18BF8E
:1004C0007FEA655C29D094EA050F08BF90EA020F25
:1004D00005D054EA000C04BF1946104630BD91EA1D
:1004E000030F1EBF0021002030BD5FEA545C05D120
:1004F0004000494128BF41F0004130BD14F580045F
:100500003CBF01F5801130BD01F0004545F0FE41D2
:1005100041F470014FF0000030BD7FEA645C1ABF07
:10052000194610467FEA655C1CBF0B46024650EA3E
:10053000013406BF52EA033591EA030F41F400216A
:1005400030BD00BF90F0000F04BF0021704730B5F0
:100550004FF4806404F132044FF000054FF00001C5
:1005600050E700BF90F0000F04BF0021704730B586
:100570004FF4806404F1320410F0004548BF40425B
:100580004FF000013EE700BF42004FEAE2014FEAB0
:1005900031014FEA02701FBF12F07F4393F07F4F8B
:1005A00081F06051704732F07F4208BF704793F08E
:1005B0007F4F04BF41F40021704730B54FF46074A1
:1005C00001F0004521F000411CE700BF50EA0102A4
:1005D00008BF704730B54FF000050AE050EA01024D
:1005E00008BF704730B511F0004502D5404261EBBD
:1005F00041014FF4806404F132045FEA915C3FF4FE
:10060000D8AE4FF003025FEADC0C18BF03325FEA9A
:10061000DC0C18BF033202EBDC02C2F1200300FA4B
:1006200003FC20FA02F001FA03FE40EA0E0021FA70
:1006300002F11444BDE600BF70B54FF0FF0C4CF45E
:10064000E06C1CEA11541DBF1CEA135594EA0C0F10
:1006500095EA0C0F00F0DEF82C4481EA030621EA4B
:100660004C5123EA4C5350EA013518BF52EA033586
:1006700041F4801143F4801338D0A0FB02CE4FF038
:100680000005E1FB02E506F00042E0FB03E54FF068
:100690000006E1FB03569CF0000F18BF4EF0010E60
:1006A000A4F1FF04B6F5007F64F5407404D25FEA5C
:1006B0004E0E6D4146EB060642EAC62141EA55510F
:1006C0004FEAC52040EA5E504FEACE2EB4F1FD0C51
:1006D00088BFBCF5E06F1ED8BEF1004F08BF5FEACF
:1006E000500E50F1000041EB045170BD06F0004681
:1006F00046EA010140EA020081EA0301B4EB5C042E
:10070000C2BFD4EB0C0541EA045170BD41F4801125
:100710004FF0000E013C00F3AB8014F1360FDEBF4A
:10072000002001F0004170BDC4F10004203C35DA26
:100730000C341BDC04F11404C4F1200500FA05F3A9
:1007400020FA04F001FA05F240EA020001F000424A
:1007500021F0004110EBD37021FA04F642EB0601C0
:100760005EEA430E08BF20EAD37070BDC4F10C04EA
:10077000C4F1200500FA04F320FA05F001FA04F2AE
:1007800040EA020001F0004110EBD37041F100019A
:100790005EEA430E08BF20EAD37070BDC4F12005A5
:1007A00000FA05F24EEA020E20FA04F301FA05F20D
:1007B00043EA020321FA04F001F0004121FA04F2B5
:1007C00020EA020000EBD3705EEA430E08BF20EA85
:1007D000D37070BD94F0000F0FD101F000464000BF
:1007E00041EB010111F4801F08BF013CF7D041EA41
:1007F000060195F0000F18BF704703F00046520045
:1008000043EB030313F4801F08BF013DF7D043EA15
:100810000603704794EA0C0F0CEA135518BF95EACB
:100820000C0F0CD050EA410618BF52EA4306D1D152
:1008300081EA030101F000414FF0000070BD50EA71
:10084000410606BF1046194652EA430619D094EAFB
:100850000C0F02D150EA013613D195EA0C0F05D1E5
:1008600052EA03361CBF104619460AD181EA030139
:1008700001F0004141F0FE4141F470014FF00000F1
:1008800070BD41F0FE4141F4780170BD70B54FF08C
:10089000FF0C4CF4E06C1CEA11541DBF1CEA13550C
:1008A00094EA0C0F95EA0C0F00F0A7F8A4EB0504EE
:1008B00081EA030E52EA03354FEA013100F08880E5
:1008C0004FEA03334FF0805545EA131343EA1263AE
:1008D0004FEA022245EA111545EA10654FEA002663
:1008E0000EF000419D4208BF964244F1FD0404F51C
:1008F000407402D25B084FEA3202B61A65EB030578
:100900005B084FEA32024FF480104FF4002CB6EB34
:10091000020E75EB030E22BFB61A754640EA0C00B4
:100920005B084FEA3202B6EB020E75EB030E22BFF4
:10093000B61A754640EA5C005B084FEA3202B6EB35
:10094000020E75EB030E22BFB61A754640EA9C00F4
:100950005B084FEA3202B6EB020E75EB030E22BFC4
:10096000B61A754640EADC0055EA060E18D04FEA82
:10097000051545EA16754FEA06164FEAC30343EA22
:1009800052734FEAC2025FEA1C1CC0D111F4801FEF
:100990000BD141EA00014FF000004FF0004CB6E7E8
:1009A00011F4801F04BF01430020B4F1FD0C88BF87
:1009B000BCF5E06F3FF6AFAEB5EB030C04BFB6EB92
:1009C000020C5FEA500C50F1000041EB045170BD85
:1009D0000EF0004E4EEA113114EB5C04C2BFD4EBB2
:1009E0000C0541EA045170BD41F480114FF0000E36
:1009F000013C90E645EA060E8DE60CEA135594EAB2
:100A00000C0F08BF95EA0C0F3FF43BAF94EA0C0FB4
:100A10000AD150EA01347FF434AF95EA0C0F7FF429
:100A200025AF104619462CE795EA0C0F06D152EA7D
:100A300003353FF4FDAE1046194622E750EA410661
:100A400018BF52EA43067FF4C5AE50EA41047FF472
:100A50000DAF52EA43057FF4EBAE12E74FF0FF3CD7
:100A600006E000BF4FF0010C02E000BF4FF0010CA8
:100A70004DF804CD4FEA410C7FEA6C5C4FEA430C21
:100A800018BF7FEA6C5C1BD001B050EA410C0CBF70
:100A900052EA430C91EA030F02BF90EA020F0020D2
:100AA000704710F1000F91EA030F58BF994208BF39
:100AB00090422CBFD8176FEAE37040F001007047F6
:100AC0004FEA410C7FEA6C5C02D150EA013C07D14D
:100AD0004FEA430C7FEA6C5CD6D152EA033CD3D098
:100AE0005DF8040B704700BF8446104662468C4692
:100AF0001946634600E000BF01B5FFF7B7FF0028C5
:100B000048BF10F1000F01BD4DF808EDFFF7F4FFED
:100B10000CBF012000205DF808FB00BF4DF808ED78
:100B2000FFF7EAFF34BF012000205DF808FB00BF9B
:100B30004DF808EDFFF7E0FF94BF012000205DF8BD
:100B400008FB00BF4DF808EDFFF7CEFF94BF012072
:100B500000205DF808FB00BF4DF808EDFFF7C4FF6B
:100B600034BF012000205DF808FB00BF4FEA410CB4
:100B70007FEA6C5C02D150EA013C0AD14FEA430C97
:100B80007FEA6C5C02D152EA033C02D14FF00000D4
:100B900070474FF0010070474FEA410212F5001212
:100BA00015D211D56FF47873B3EB625212D94FEAB4
:100BB000C12343F0004343EA505311F0004F23FA9E
:100BC00002F018BF404270474FF00000704750EAF3
:100BD000013005D111F0004008BF6FF000407047B0
:100BE0004FF00000704700BF4A0011D212F500120A
:100BF00011D20DD56FF47873B3EB62520ED44FEA75
:100C0000C12343F0004343EA505323FA02F07047F4
:100C10004FF00000704750EA013002D14FF0FF3032
:100C200070474FF0000070474FEA4102B2F1E043D5
:100C300024BFB3F5001CDCF1FE5C0DD901F0004CC3
:100C40004FEAC0024CEA5070B2F1004F40EB830013
:100C500008BF20F00100704711F0804F21D113F13F
:100C60003872BCBF01F00040704741F480114FEA78
:100C70005252C2F11802C2F1200C10FA0CF320FA01
:100C800002F018BF40F001004FEAC1234FEAD3231E
:100C900003FA0CFC40EA0C0023FA02F34FEA430388
:100CA000CCE77FEA625307D150EA01331EBF4FF011
:100CB000FE4040F44000704701F0004040F0FE402C
:100CC00040F40000704700BF7BB972B90029BEBF75
:100CD00000204FF0004106E008BF00281CBF6FF065
:100CE00000414FF0FF3000F0EBB9ADF1080C6DE9B9
:100CF00004CE002909DB002B1ADB00F083F8DDF8B5
:100D000004E0DDE9022304B07047404261EB410199
:100D1000002B1BDB00F076F8DDF804E0DDE90223B0
:100D200004B0404261EB4101524263EB4303704720
:100D3000524263EB430300F065F8DDF804E0DDE9BF
:100D4000022304B0404261EB41017047524263EB21
:100D5000430300F057F8DDF804E0DDE9022304B0B6
:100D6000524263EB4303704753B94AB9002908BFA5
:100D700000281CBF4FF0FF314FF0FF3000F0A0B94A
:100D8000ADF1080C6DE904CE00F03CF8DDF804E0AC
:100D9000DDE9022304B0704738B500220023044681
:100DA0000D46FFF7BBFE28B920462946BDE838406E
:100DB00000F00AB8204605F1004100F005F8404275
:100DC00061EB410138BD00BFD0B50C4B0022064697
:100DD0000F46FFF731FCFFF707FF0446FFF7B2FBB2
:100DE000074B0022FFF728FC02460B4630463946E7
:100DF000FFF76AFAFFF7F8FE2146D0BD0000F03D8C
:100E00000000F0412DE9F047089D0C46002B4ED123
:100E100094468C458646B2FA82F262D94AB1C2F152
:100E20002003914020FA03F30CFA02FC194300FA64
:100E300002FE4FEA1C471FFA8CF6B1FBF7F44FEAAB
:100E40001E4307FB141143EA014304FB06F19942D8
:100E50000AD91CEB030304F1FF3080F012819942A0
:100E600040F20F81023C6344591A1FFA8EF3B1FB22
:100E7000F7F007FB101143EA014300FB06F69E4220
:100E80000AD91CEB030300F1FF3180F0FC809E4285
:100E900040F2F980634402389B1B40EA0440002181
:100EA0001DB1D3400022C5E90032BDE8F0878B4276
:100EB00005D90DB1C5E9000100210846F5E7B3FAEF
:100EC00083F1002946D1A34202D39042C0F0F080C2
:100ED000861A64EB03030120002DE6D0C5E9006308
:100EE000E3E7002A40F09080A1EB0C044FEA1C4895
:100EF0001FFA8CF70121B4FBF8F64FEA1E4308FBFA
:100F0000164443EA044307FB06F0984208D91CEB59
:100F1000030306F1FF3402D2984200F2CD80264648
:100F20001C1A1FFA8EF3B4FBF8F008FB104443EAD6
:100F3000044300FB07F79F4208D91CEB030300F1B1
:100F4000FF3402D29F4200F2B0802046DB1B40EA11
:100F50000640A5E7C1F120068B4022FA06F71F43A1
:100F600020FA06FC04FA01F343EA0C03F44000FA09
:100F700001F8380C4FEA1349B4FBF0FE1FFA87FC66
:100F800000FB1E4449EA04440EFB0CF9A14502FA99
:100F900001F20AD93C190EF1FF3A80F08480A14594
:100FA00040F28180AEF1020E3C44A4EB09041FFA2A
:100FB00083F9B4FBF0F300FB134449EA044403FB58
:100FC0000CFCA44507D93C1903F1FF3067D2A445B6
:100FD00065D9023B3C4443EA0E40A0FB0293A4EBDC
:100FE0000C049C42CE469C4651D34ED055B1B8EB32
:100FF0000E0364EB0C0404FA06F6CB401E43CC400F
:10100000C5E90064002150E7C2F1200320FA03F192
:101010000CFA02FC24FA03F394400C434FEA1C48F8
:1010200000FA02FE1FFA8CF7B3FBF8F008FB103150
:10103000230C43EA014300FB07F1994208D91CEB5A
:10104000030300F1FF362CD299422AD902386344B7
:101050005B1AA4B2B3FBF8F108FB113344EA034472
:1010600001FB07F3A34208D91CEB040401F1FF368E
:1010700013D2A34211D902396444E41A41EA00416F
:1010800039E70446F0E6084606E7C845AED2B9EBB4
:10109000020E63EB070C0138A8E73146EDE7034683
:1010A00099E73046D4E7D6467FE7634402384DE7F8
:1010B0000646234608460FE7023E634430E700BF7A
:1010C000704700BFDFF834D0002103E00C4B5B58C1
:1010D000435004310B480C4B42189A42F6D30B4A4A
:1010E00002E0002342F8043B094B9A42F9D304F092
:1010F000A3FA40F061F801F045F8704700000320C2
:10110000CC5D060800000020C00A0020C00C0020B2
:10111000A87F0120FEE708B500F098FDBDE8084073
:1011200000F01CBD00F094BD704710B504210446CA
:101130001FF003FC204610BD38B50C4B0C4C18803A
:101140000C4B822019806368984740F6110398423F
:101150000AD1094D23682C60822098472B68822091
:10116000DB689847002038BD0120FCE7E60C002032
:1011700050070020E40C0020E80C00204FF4A07180
:10118000F020FFF7D9BF0000F7B52C4D2B680446BF
:101190001B69822098472080002843D02B680DF1DE
:1011A00006025B6901A982209847BDF80620A2F5D6
:1011B000B47292B20A2A37D90B23B2FBF3F2204B56
:1011C0001B889A4201D9013B9AB2BDF8043040F61F
:1011D000B8318B422AD8C3F571630E339BB20F210D
:1011E000B3FBF1F3174909888B4201D901398BB25E
:1011F000154E164D30682F68834281B28CBF591A44
:10120000C91AB8B2BA428CBF101A801A89B280B219
:1012100001440529C8BF33603368C8BF2A606380B2
:101220002B68A38003B0F0BD0022CEE7C3F56D6349
:1012300008339BB20E2BD2D80023D9E7E80C00204C
:10124000E40C0020E60C0020E00C0020DC0C002068
:1012500037B568460D461446FFF796FFBDF8000007
:1012600030B1BDF802302B60BDF80430236001209E
:1012700003B030BD032821D8DFE800F0020B1219BB
:101280000F4B1A68B2FA82F2520904210D4804F099
:1012900069BC0B4B5A68B2FA82F252090821F5E791
:1012A000074B9A68B2FA82F252091021EEE7044B1A
:1012B000DA68B2FA82F252092021E7E7704700BFEC
:1012C000EC0C002000100240032821D8DFE800F0D9
:1012D000020B12190F4B1A68003A18BF01220421A1
:1012E0000D4804F03FBC0B4B5A68003A18BF01226E
:1012F0000821F5E7074B9A68003A18BF0122102130
:10130000EEE7044BDA68003A18BF01222021E7E734
:10131000704700BFEC0C00200010024003280DD8DD
:10132000DFE800F00206080A0421054804F01FBCAB
:101330000821FAE71021F8E72021F6E7704700BFFF
:101340000010024008B5032811D8DFE800F0020AB7
:101350000C0E0421074804F0FFFB431E584258417D
:1013600008BD0821F6E71021F4E72021F2E700206C
:10137000F3E700BF0010024070B5084D00240126BD
:10138000E0B2FFF7DFFF18B12B68012B18BF2E600A
:101390000134052C05F10405F2D170BDEC0C0020E0
:1013A000012380F8781080F879307047002070476A
:1013B000034B4164003918BF01211970704700BF09
:1013C000A757012000207047836B0BB108461847D0
:1013D00070474FF6FF707047406803689B69184775
:1013E000704770477047000010B5044600F03EFD9E
:1013F00023680349D3F88C302046BDE810401847D5
:10140000000000D008B503680446D3F88030984740
:10141000236820469B6F984700F0ECF8236820462D
:101420001B6F9847292001F01DF900F0E3F82368AD
:1014300020461B6F9847F8E710B5044609F06CFD8D
:1014400023682046D3F8AC30BDE81040184700F0C0
:10145000EFBC00F0F3BC00F027BD00F0C5BC00F00D
:1014600037BD00F03FBD00F0C9BC08F0C1BF10B5EA
:101470007C2104461FF061FA204610BD10B590F89B
:10148000341090F878400C4B8C421A7809D03AB955
:101490000A4A0B491488088810800C8001221A70AF
:1014A00010BD002AFCD0054A054914880888108020
:1014B0000C800022F3E700BFA05701209C570120B9
:1014C0009E57012070B50D46194635B9094B0A4A99
:1014D0000A4840F2D2213BF0BBFAC0E90F52084B58
:1014E000003A18BF01221A700368BDE87040D3F8B3
:1014F0008C301847045604083C5604088A560408E1
:10150000A657012008B5094B1B888B4203D8084B0E
:101510001B88934205D9074B074A08489E213BF098
:1015200097FA074B1980074B1A8008BD9C5701207A
:101530009E570120CF560408325704088A560408E3
:10154000A2570120A4570120034690F87A0018B151
:10155000586803681B68184770470000012108B5E8
:101560000022084606F037FC0A4B186028B90A4BDF
:101570000A4A28210A483BF06BFA00220421012084
:1015800006F0C8FC074B186018B9074B034A2C211A
:10159000F0E708BD000D00205058040899580408D1
:1015A000C8580408FC0C002015590408024B4FF0E1
:1015B000FF31186806F059BC000D0020014B186877
:1015C00006F07FBC000D0020024B0021186806F0D9
:1015D0004CBC00BF000D0020FFF7F0BF03480449DA
:1015E000006800231A4606F0D0BC00BFFC0C0020A7
:1015F0000400002013B5084C00231A4601A92068F6
:1016000006F0F4FC20684FF0FF33002201A906F039
:10161000EDFC02B010BD00BFFC0C002003685B6C49
:1016200018470120704703689B6A1847FEE70000CF
:1016300082B0002301930E4B1A6B42F400021A632E
:101640001A6B02F400020192019A1A6942F4000234
:101650001A611A6922F400021A61064B064A1A61DD
:10166000064A5A61064B4FF080629A6002B070479A
:101670000038024008210020111900082D1600082A
:1016800000E100E040F2EF3070470000054B0360DE
:10169000054B4FF08062C3F88820BFF34F8FBFF334
:1016A0006F8F7047B45A040800E100E010B504469B
:1016B0004FF45A61FFF7EAFF20461FF03EF920463B
:1016C00010BD000008B50A2809D8DFE800F00610B0
:1016D0000E080808081010101000022008BD054B65
:1016E000054A064890213BF0B3F90020F6E70120B7
:1016F000F4E700BF5759040872590408BD5904089B
:1017000038B50C46887FFFF7DDFFA58AE28A164BC5
:101710002169586342EA05425A64628BD963521BBD
:101720001A642568082D0ED19A611A615862207FCB
:101730000E4A42EA0062DA61E2681A620C4A5961B2
:10174000D9601A6038BD0022D8611A61E1680A0ABE
:10175000480902F4784200F4FC600243C1F3C4017A
:101760000A439A63034AECE700B002400900010013
:10177000012302000123030008B50B280BD8DFE882
:1017800000F00612100A0A0A0A08080808080220CF
:1017900008BD0520FCE7054B054A06486F213BF0D4
:1017A00057F90020F4E70120F2E700BF5759040879
:1017B000085A0408BD5904082DE9F04191F81D802C
:1017C0000C464046FFF7D8FFA77F05463846FFF78F
:1017D000D3FF06463846FFF775FFA18A628B444B5C
:1017E000521A1A649A61228B521A1A61E28A586359
:1017F00042EA01425A6421696268D963DA6020686A
:10180000802828D0227F0FD8202867D0402865D094
:1018100004281AD0364B45EA026545F40035B84530
:10182000DD6161D0334A44E0B0F5807F04D0B0F58B
:10183000007FEFD1304800E0304840EA0262DA61D0
:10184000E2681A625E62596132E045EA026242F47D
:101850000032DA61F6E7A068021DDA62227F45EA0B
:10186000026545F40035DD615E625961017841B180
:10187000012921D0224B234A23484FF48D713BF09C
:10188000E7F8DA69418822F47F42013922F0100238
:1018900042EA0122DA610121154BDA6942F02002A5
:1018A000DA61DA699206FCD410229A600029B9D074
:1018B000164A1A60BDE8F081B2F1FF01DA6940888A
:1018C00022F47F4200F1FF3022F0100242EA0022AF
:1018D00042F0100218BF0121DA61DDE745EA026239
:1018E000034B42F40032B4E742F20132E1E700BFB9
:1018F00000B0024001230100090002000A000200BA
:10190000525A04086C5A0408BD5904080123020005
:10191000024B1B68586803685B691847A857012089
:1019200070B5044625460A4B0C30002660602672CE
:10193000667245F8203B6022294609F045FC04F513
:101940005A63EE6024359D42FBD1204670BD00BF36
:10195000B45A0408034B1A68D207FCD423229A60B5
:10196000704700BF00B002407047000030B50F4C18
:101970002568ED07FCD423250904A56041F0010189
:101980000225FF2B65636164E0630AD00849656244
:1019900041EA0363E361074B22626061E060236018
:1019A00030BDE561039BA363034BF8E700B0024041
:1019B00009000100010002000100030030B50E4CD7
:1019C0002568ED07FCD423251204A56042F001022E
:1019D0000225FF2B65636264E063E16008D01B06AB
:1019E00043F00213E361054B65626061236030BD23
:1019F000034BE3610123F9E700B00240010002005C
:101A0000020002FF30B50B4C2568ED07FCD42325FE
:101A100012041B06A56043F40033022542F00102C4
:101A200065636264E063E160E361034B656260618A
:101A3000236030BD00B00240010002000120704769
:101A40000C2070470C2303FB0100083070470C2367
:101A500003FB01000830704701207047EC207047FD
:101A6000EC2303FB010008307047EC2303FB01006B
:101A700008307047012070471020704700EB0110BC
:101A80000830704700EB011008307047084601F03D
:101A90005DBA000010B5034B0360044608F0FDF981
:101AA000204610BD6C5B040810B50446FFF7F2FF3A
:101AB000204614211EF041FF204610BD10B5034BF7
:101AC0000360044608F0E9F9204610BD385B0408BD
:101AD00010B50446FFF7F2FF2046F4211EF02DFF5B
:101AE000204610BD10B5034B0360044608F0D5F93D
:101AF000204610BD045B040810B50446FFF7F2FF52
:101B0000204618211EF019FF204610BD10B5084BC5
:101B10000360044600F59070FFF7BCFF04F12C0051
:101B2000FFF7CCFF04F11400FFF7DCFF204610BDE7
:101B3000A05B040808B50248FFF7E8FF08BD00BF36
:101B4000D41B002010B50446FFF7E0FF20464FF4F9
:101B500025711EF0F2FE204610BD00002DE9F34174
:101B600001F01CF9054601F01DF900240146234649
:101B70002846224600940FF0A3FE274B274A1A60FE
:101B8000204601F053FF264D264B274A27489A60EE
:101B90000FF0FEFD2B68BFF35B8FDB0735D42846C3
:101BA0001EF0CDFE88B3224C224B236004F59C76B8
:101BB00004F1140004F12C0804F590776060C4F877
:101BC0000880E760266108F069F91B4B63614046B5
:101BD00008F064F9194BE362384608F05FF9184BD6
:101BE000C4F8203104F59A7002F03EF8224604F55C
:101BF0009A71304601F086FF304601F0A7F911488E
:101C00003AF044FF28461EF0A6FE0F4802B0BDE899
:101C1000F041FFF7E9BB00BF0C580120800D002008
:101C2000D01B0020A00D0020840D00200800002003
:101C3000D41B0020A05B0408045B0408385B040884
:101C40006C5B0408351B0008040D00207047000081
:101C50000148FFF7D7BB00BF040D002070B5244E2C
:101C6000244C254D254B23603046FFF759FE28466E
:101C700014F02CFF22480DF0C5FF224B2248DC60F7
:101C800000224FF48071C3E9121220491A86C3E979
:101C90001A121F4999671F4983F858200B60F021D9
:101CA00001801D485A6601801C4883F870204FF45B
:101CB000A071C3E90422C3E90622C3E90822C3E9EB
:101CC0000A22C3E90E22C3E91022C3E91422C3E9A0
:101CD00017225A67C3E90165018011480180114943
:101CE0000A70012283F834200F4A1A6070BD00BFC9
:101CF0002C0E0020CC1B0020A00D0020F455040861
:101D0000840D0020040D00209C57012001000001DB
:101D100000000101A8570120A25701209E57012071
:101D2000A4570120A0570120805704080148FFF75D
:101D3000ADBC00BF2C0E0020002070478180704792
:101D4000C18070470181704741817047704770477B
:101D500070477047704710B4C4880368121B8488AA
:101D60005B6D091B12B25DF8044B09B218474FF6C0
:101D7000FF7383814FF0FF3303621368C361106008
:101D80007047002070478B88838001207047704720
:101D900080F82610704790F82600704710B5002292
:101DA000B1F90840B1F90A10028042808480C180F4
:101DB00010BD0022028042808280C280704701777D
:101DC000704780ED080A704780F82410704780F84B
:101DD0002510704701207047983070478C3070474D
:101DE0008430704770470000034B902283F85A23D9
:101DF00083F85823704700BF00E100E0094A0A4910
:101E0000D3680A48C3F30A03013B9BB20B801169F4
:101E1000C1F30A01013901801364536B43F00103DC
:101E200053637047006801406A1E0020681E00204E
:101E3000014BD3F8AC00704700680140024B01220F
:101E4000C3F8AC105A627047006801407047704791
:101E500010B52C2104461EF070FD204610BD10B5B3
:101E6000BC2104461EF069FD204610BD70B5044635
:101E700008F013FB23685D6E0CF098FD01462046C8
:101E8000A8472368054AD3F888502046AC4600236B
:101E9000BDE87040A2F51631604700BF00B004D025
:101EA00008F0E2BA08F0ECBA08F0A8BA08F009BCE9
:101EB00090F8252012B103685B691847704790F8C5
:101EC00025201AB190F8242002B118607047000054
:101ED000034B4FF080629A604FF080729A607047B7
:101EE00000E100E0084B4FF08062C3F88820BFF3A8
:101EF0004F8FBFF36F8F4FF08072C3F88820BFF30E
:101F00004F8FBFF36F8F704700E100E070B5002383
:101F1000124E8380124B0360336893F858200546B5
:101F20000AB1D86C00B998680368DB6A98473368CF
:101F3000B0FA80F4D86C640930B10368DB6A984762
:101F4000002808BF44F001042CB9064B064A074894
:101F50002C213AF07DFD284670BD00BFA857012016
:101F6000B05C0408AC5B04080A5C0408435C040829
:101F700070B5244E3568BFF35B8F15F001053FD176
:101F800030461EF0DCFC00283AD01F4C1F4B256168
:101F900004F13400C4E90035C4E90255E584A562C2
:101FA000A5850EF08EF804F158000AF007FD184BD5
:101FB000A3652046174B40F8843BFFF7A7FF164B5D
:101FC000C4F884302433C4F88C306423C4E9283541
:101FD0000023C4F8AC30C4F8B030C4F8B430C4F84E
:101FE000B8300E480E4BC4F89050C4F89C50C4F85A
:101FF000A850C4F898303AF049FD30461EF0ABFCCA
:10200000014870BD6C1E0020701E0020C46E0408C4
:10201000D05C0408485D0408786E0408E51D0008DB
:10202000586E040810B5144C236823B3134B144A9C
:102030001B6C11888B4213D1124B198804F07CFB66
:10204000226892F86A30013382F86A30FFF7C6FAE4
:10205000206808F061FFBDE810400020FFF70AB9D2
:1020600004F06AFB206803681B6A9847BDE81040CB
:102070000020FFF729B910BDA857012000680140D2
:102080006A1E0020681E002007B5064BADF806004A
:102090001B68054801220DF1060105F0ABF803B0FD
:1020A0005DF804FB0C000020B41F002008B564207C
:1020B00005F085FEFBE7000007B50A28019006D170
:1020C000084909484FF0FF33012205F007FD4FF0A2
:1020D000FF33012201A9044805F000FD019803B077
:1020E0005DF804FB8C5D0408701F002030B595B0CE
:1020F000102200210AA83DF0A7F81422002103A80D
:102100003DF0A2F800241D4B01941A6C42F080525D
:102110001A641B6C03F080530193019B184B0294CB
:102120001A6842F440421A601B6803F44043029369
:102130000122029B4FF48033CDE9082302254FF49E
:102140008003CDE90E5308214FF4A873CDE9101395
:1021500008A804231393129504F00CFB0F23CDE978
:1021600003354FF4A0504FF48053CDE90603052109
:1021700003A8059404F0DAFC15B030BD0038024025
:102180000070004080B59AB003F064FAFFF7AEFF2C
:10219000142200210DA800243DF056F8C64B0094EF
:1021A0001A6BC648C64D42F010021A631A6B02F051
:1021B00010020092009A01941A6B42F020021A63F6
:1021C0001A6B02F020020192019A02941A6B42F0FB
:1021D00080021A631A6B02F080020292029A039440
:1021E0001A6B42F004021A631A6B02F004020392A3
:1021F000039A04941A6B42F001021A631A6B02F0FC
:1022000001020492049A05941A6B42F002021A63C6
:102210001A6B02F002020592059A06941A6B42F0BC
:1022200040021A631A6B02F040020692069A079463
:102230001A6B42F008021A631B6B03F00803079342
:1022400022463C21079B03F08DFC9E482246042138
:1022500003F088FC9C4822464FF4405103F082FC76
:1022600022469A484FF4C04103F07CFC01264FF00F
:1022700003083C239148CDF840800DA902274FF078
:102280000409CDE90D360F9403F082FB8D480F94BD
:102290000DA9CDE90D96109703F07AFB4FF440534A
:1022A00089480DA9CDE90D36CDE90F4703F070FB44
:1022B0000DA94FF4C0438548CDE90D36CDE90F4453
:1022C00003F066FB8248834B036003F055FA824AB1
:1022D000824B2C62C5E9002328464FF48043C5E9B0
:1022E0000434C5E90244C5E9064403F029FE10217F
:1022F000284604F065F82146284604F080F878481E
:10230000784984624FF48273C0E900134FF400757A
:102310001823C0E906530A23734DC362C0E902447F
:10232000C0E90444C0E9084404F008FF6F4B0D976E
:102330004FF0100CC5E900364023C5E904C34FF443
:10234000C073C5E906344FF40063C5E908344FF49F
:102350000053AB620DA907232846CDE90E39CDE91C
:1023600010384FF0080AC5E90249CDE9127704F0A8
:10237000E1FD4FF6FF7209A92846CDE90AA60894A7
:1023800009960C9404F0F6FD304603F08FF94FF6F1
:10239000FF7209A92846CDE9097ACDE90B6404F05A
:1023A000E9FD4FF6FF7209A92846CDE9098ACDE972
:1023B0000B9404F0DFFD4FF40C730893089B0C930F
:1023C0004FF6FF7209A92846CDE9099A0B9604F049
:1023D000D1FD40F26A51284604F0EAFD342221463C
:1023E0000DEB02003CF030FF414D424B2C61C5E942
:1023F00000340923C5E905361D2340F20D1EC5E949
:10240000073840F24313C5E909E3284640F2471371
:1024100040F21718C5E90B83C5E90244AC8685F87C
:10242000364004F091F8FF21F022CDE912144FF468
:10243000806905214FF4A073CDE90E24CDE91491F4
:10244000CDE916420DA922462846CDE910372A4D7E
:1024500018930D94ADF864408DF8664004F03FF990
:10246000264B2B601B68DFF8A4A098472B68244DEF
:10247000DB689847234B2846C5E90034C5E9027458
:10248000C5E90A47C5E90C4403F086F931462846F8
:1024900003F03AFA1C484FF4E133C0E900A30C23DF
:1024A000C0E90534C0E902440461C46105F0E8FAFA
:1024B000FEF731FE2CE000BF003802400010024061
:1024C000B420002000080240000C02400018024026
:1024D0004821002000300240005C0040A08601003E
:1024E000B41F0020005001403C1F0020400100A00C
:1024F0000C200020006801402C1F0020180700203D
:102500000821002000B00240701F00200010014090
:102510000E483CF055FA05F0DFFB0D4A0D48214608
:1025200005F006FC0C4B0D4A186021460C4805F0DE
:10253000FFFB0C4B0C4A186021460C4805F0F8FBD9
:102540000B4B186005F0DAFBFEE700BF8E5D040858
:10255000045E0408AD200008381F0020E05D040878
:1025600025110008341F0020BC5D0408E53C00086C
:10257000301F0020704770477FB5094B8DF817203A
:102580001B6802930DF117020123009201930A4682
:102590000146044803F07CFD07B05DF804FB00BF72
:1025A00010000020B42000207FB500238DF81730E4
:1025B000084B1B6802930A4601230DF11701009195
:1025C00001930146044803F0F3FD9DF8170007B09E
:1025D0005DF804FB10000020B42000201FB5084C5B
:1025E00024680092CDE901340A46012301460548DA
:1025F00003F0DEFD003818BF012004B010BD00BF9D
:1026000010000020B420002003F050B810B5064C94
:1026100000222046042103F0A5FA20460122BDE84D
:102620001040042103F09EBA0008024038B50B4D5B
:10263000044601220A484FF4005103F093FA0022A5
:102640000421284603F08EFA2046FFF71DFD284698
:102650000122BDE83840042103F084BA000802409A
:10266000000C024038B50B4D044600220A484FF4D6
:10267000005103F077FA00220421284603F072FA91
:102680002046FFF701FD28460122BDE8384004211D
:1026900003F068BA00080240000C0240F7B5144E7F
:1026A000144F05460C4630460022042103F05AFA26
:1026B00000224FF40051384603F054FA2846FFF741
:1026C000E3FC0D4B0D481B68224601A904F031FFC5
:1026D000384601224FF40051019C03F043FA304682
:1026E0000122042103F03EFA204603B0F0BD00BFF2
:1026F00000080240000C02400C000020B41F002023
:1027000002F0D4BF0268034B9A4201D102F0BCBF71
:10271000704700BF001000407047000082B00E4BB1
:1027200000220092596C41F480415964596C01F4C3
:102730008041009100990192196C41F08051196417
:102740001B6C03F080530193019B0F216FF001007C
:1027500002B002F0D1BF00BF003802400268094B4E
:102760009A4282B00BD100230193074B1A6B42F4BB
:1027700080521A631B6B03F480530193019B02B0D8
:10278000704700BF003002400038024007B50F4BD1
:1027900002689A4216D10022A3F5F0430192196B08
:1027A00041F4000119631B6B03F40003019305213D
:1027B0005A20019B02F0A0FF5A2003B05DF804EB01
:1027C00002F0CCBF03B05DF804FB00BF00B00240D4
:1027D0002DE9F043044689B01422002103A83CF0FF
:1027E00033FD2268244B9A4243D1244C24480025CF
:1027F0000095236B43F004032363236B03F004036E
:102800000093009B0195236B43F001032363236B2B
:1028100003F001030193019B4FF012094FF4007381
:102820004FF001080327042603A9CDE90339CDE9B8
:102830000587079603F0ACF84FF4807311480796AC
:1028400003A9CDE90339CDE9058703F0A1F8029585
:10285000236C43F400032364236C03F4000302930A
:10286000029B236A43F400032362236A23F40003D8
:10287000236209B0BDE8F083005C004000380240EC
:102880000008024000000240F0B599B0044614224E
:10289000002107A83CF0D8FC30220DEB02000021FB
:1028A0003CF0D2FC22685E4B9A4240F0B78008238D
:1028B0000C93C0231093042312930CA84FF40033FD
:1028C000159304F00BFA08B1FFF726FF554B564855
:1028D000002400945A6C42F080625A645A6C02F0F0
:1028E00080620092009A01941A6B42F020021A63EF
:1028F0001A6B02F020020192019A02941A6B42F0C4
:1029000001021A631A6B02F001020292029A039406
:102910001A6B42F002021A631A6B02F0020203926F
:10292000039A04941A6B42F040021A631A6B02F085
:1029300040020492049A05941A6B42F004021A634E
:102940001A6B02F004020592059A06941A6B42F083
:1029500008021A631B6B03F00803069302250E2678
:10296000069B0B964FF4806307A9CDE90735CDE9A7
:10297000094503F00DF841F658032C480B9607A9BA
:10298000CDE907350927CDE9094503F001F803230F
:1029900027480B9707A9CDE90735CDE9094502F08E
:1029A000F7FF4FF4706322480B9607A9CDE907356E
:1029B000CDE9094502F0ECFF4FF40C631D480B967E
:1029C00007A9CDE90735CDE9094502F0E1FFC023AC
:1029D00019480B9607A9CDE90735CDE9094502F05D
:1029E000D7FF082315480B9607A9CDE90735CDE990
:1029F000094502F0CDFF4FF4A0530E480B9707A9ED
:102A0000CDE90735CDE9094502F0C2FF582022463D
:102A1000052102F071FE582002F0A0FE19B0F0BDB1
:102A200000680140003802400014024000000240EB
:102A3000000402400018024000080240000C02405E
:102A400010B5044688B01422002103A83CF0FCFB1A
:102A50002268144B9A4223D103F568430021019167
:102A60005A6C114842F480125A645A6C02F4801273
:102A70000192019A02911A6B42F020021A631B6BB9
:102A800003F020030293029B4FF4607202230321A0
:102A9000CDE903230523CDE9061303A902F078FF4E
:102AA00008B010BD005001400014024010B50446AB
:102AB00088B01422002103A83CF0C6FB2268144B06
:102AC0009A4223D103F59433002101915A6C1148A5
:102AD00042F010025A645A6C02F010020192019AFC
:102AE00002911A6B42F001021A631B6B03F001039F
:102AF0000293029B4FF4C06202230321CDE903231A
:102B00000723CDE9061303A902F042FF08B010BD68
:102B100000100140000002402DE9F04186B0002382
:102B200003932B4B1C68002C4FD14FF00108C3F8C6
:102B30000080284B00949A6B274842EA08029A6367
:102B40009B6B03EA08030093022703260C25009BD6
:102B500001A94FF63F03CDE90137CDE9046502F045
:102B600017FF1E48059501A9CDE90187CDE9034668
:102B700002F00EFF48F233131948059501A9CDE97B
:102B80000137CDE9034602F003FF4FF68373154882
:102B9000059501A9CDE90137CDE9034602F0F8FE1C
:102BA0004CF203731048059501A9CDE90137CDE931
:102BB000034602F0EDFE60230C48059501A9CDE91E
:102BC0000137CDE9034602F0E3FE06B0BDE8F0812F
:102BD000502100200038024000140240000802404A
:102BE0000018024000100240000C024000040240A5
:102BF00070B588B000230293204B1A6C42F010028B
:102C00001A641B6C03F010030293054601A903A884
:102C1000029B04F045F8069B4BBB04F021F8184ECC
:102C2000184B336040F2E733F360174BB0FBF3F31C
:102C3000013B7360304600233361B360B36104F03D
:102C40005DFE044680B9304604F012FD044658B9D2
:102C5000362002F083FD0F2D0DD82246294636205E
:102C600002F04AFD094B1D60204608B070BD03F01C
:102C7000F7FF4000D3E70124F6E700BF0038024029
:102C8000542100200010004040420F008007002027
:102C90007047FEE7FEE7FEE7FEE77047014804F0F5
:102CA00025BD00BF54210020014803F0BBBC00BF7C
:102CB0000C200020014802F09DBD00BF082100202B
:102CC0000120704708B53EF071FA162303604FF0FB
:102CD000FF3008BD08B53EF069FA16230360FEE731
:102CE00070B50D4614460E46731B9C4201DC20460F
:102CF00070BDAFF3008006F8010BF5E770B50D4627
:102D000014460E46731B9C4201DC204670BD16F82B
:102D1000010BFFF7D1F9F5E74FF0FF3070474FF4A3
:102D200000534B600020704701207047002070471F
:102D30000A4A116808B5034609B9094911601068C3
:102D4000694603448B4206D93EF030FA0C230360F7
:102D50004FF0FF3008BD1360FCE700BFA02100204A
:102D6000A87F0120704710B5042104461DF0E5FD41
:102D7000204610BD012908B506D0022908D059B94E
:102D800000F092FE006808BD00F08EFE4068FAE791
:102D900000F08AFE8068F6E70020F4E700487047FC
:102DA0003C5E04080320704713B5002451B103684A
:102DB00001948DF8034001AA9C680DF10303A0471C
:102DC00002B010BD0846FBE7C0897047008A704713
:102DD000C088704780887047807A00F07F00704715
:102DE000807AC00970470020704700009FED010AFB
:102DF000704700BF000000007047704700F59873EF
:102E00000868496803C3704770477047416070475E
:102E100070470000064BC0F84C310023C0F8503119
:102E200000F5A273C0F84801C0F84031704700BFF8
:102E3000453200080123037270477047704710B491
:102E4000C26841685410034601EB6200D20748BFD4
:102E50000A599B685DF8044B48BFD358184703468E
:102E6000406830B19A681AB9D86800F0010070471C
:102E70000120704710B50C2104461DF05EFD204670
:102E800010BD10B5102104461DF057FD204610BDA1
:102E900010B54FF4AE7104461DF04FFD204610BD35
:102EA00010B50BF083FD0368BDE81040DB6B1847DD
:102EB00010B50446D0F8400158B10368DB68984764
:102EC00038B1D4F8400103689B6898470023C4F8E0
:102ED000403110BD044B1B6893F858200AB1D86CE0
:102EE00000B99868704700BFA857012070B5044624
:102EF0000D4616460BF01CFE104A1460104A226064
:102F0000104A0023C4E95123C4E95333C4E94F33C1
:102F10000D4B1868036801219B68C4E95565984703
:102F2000FFF7D8FF15F025FCFFF7D4FF15F09CFC48
:102F3000FFF7D0FF15F0A4FC204670BDFC57012020
:102F40002063040808630408A8570120064BC0F852
:102F50004C310023C0F8503100F5A273C0F848018D
:102F6000C0F84031704700BF45320008064BC0F83A
:102F70004C310023C0F8503100F5A273C0F848016D
:102F8000C0F84031704700BFFD300008064BC0F864
:102F90004C310023C0F8503100F5A273C0F848014D
:102FA000C0F84031704700BFB52F000803685B6A66
:102FB000184700002DE9F14FD0E9556A0746B0687F
:102FC00003681B6A9847972805D8444B444AA321B5
:102FD000444839F03DFD706803681B6A98470F2824
:102FE00003D8414B3E4AA421F2E7F06803681B6A0C
:102FF00098470B2803D83D4B394AA521E8E70BF049
:10300000D5FCDFF8F09004300BF0F5FCD9F80000A7
:1030100010B10368DB689847D9F8000010B1036865
:103020001B689847DFF8D080D8F8000010B103681B
:103030005B699847D7F83C0110B103685B68984713
:10304000D8F8000010B103681B689847D7F83C0116
:1030500010B103689B689847F0680021FFF7A6FF4E
:103060004FF0000B224BC0F804B0044680F808B0C3
:103070000360B068036859465B6A9847054600F0EC
:1030800025FE7068036859465B6A984729460646DC
:1030900000F0FCFD331DC7F83C61C9F80040C8F8DA
:1030A0000050CAF800302B68C6F808A02846DB6834
:1030B000EE639847336830461B6898472146284698
:1030C0000DF062FC236820461B69984723685B6902
:1030D000204601B0BDE8F04F184700BF785E0408F5
:1030E000065F0408D85F04081F600408C260040873
:1030F00074630408F0570120EC5701202DE9F14FCB
:10310000D0E9556A0746B06803681B6A9847C32828
:1031100005D8444B444AA321444839F099FC7068CF
:1031200003681B6A98470F2803D8414B3E4AA421E5
:10313000F2E7F06803681B6A98470B2803D83D4BF9
:10314000394AA521E8E70BF031FCDFF8F0900430B4
:103150000BF051FCD9F8000010B10368DB68984708
:10316000D9F8000010B103681B689847DFF8D080D9
:10317000D8F8000010B103685B699847D7F83C01A4
:1031800010B103685B689847D8F8000010B1036875
:103190001B689847D7F83C0110B103689B689847B3
:1031A000F0680021FFF702FF4FF0000B224BC0F840
:1031B00004B0044680F808B00360B068036859465C
:1031C0005B6A9847054600F0D5FC7068036859466D
:1031D0005B6A98472946064600F0ACFC331DC7F8E9
:1031E0003C61C9F80040C8F80050CAF800302B68AC
:1031F000C6F808A02846DB68EE6398473368304677
:103200001B689847214628460DF0BEFB23682046E0
:103210001B69984723685B69204601B0BDE8F04F01
:10322000184700BF785E040865610408D85F040889
:103230001F600408C260040874630408F05701208A
:10324000EC5701202DE9F14FD0E9556A0746B068E7
:1032500003681B6A9847EB2805D8444B444AA321CE
:10326000444839F0F5FB706803681B6A98470F28DB
:1032700003D8414B3E4AA421F2E7F06803681B6A79
:1032800098470B2803D83D4B394AA521E8E70BF0B6
:103290008DFBDFF8F09004300BF0ADFBD9F80000A7
:1032A00010B10368DB689847D9F8000010B10368D3
:1032B0001B689847DFF8D080D8F8000010B1036889
:1032C0005B699847D7F83C0110B103685B68984781
:1032D000D8F8000010B103681B689847D7F83C0184
:1032E00010B103689B689847F0680021FFF75EFE05
:1032F0004FF0000B224BC0F804B0044680F808B031
:103300000360B068036859465B6A9847054600F059
:103310009FFC7068036859465B6A984729460646D1
:1033200000F076FC331DC7F83C61C9F80040C8F8CE
:103330000050CAF800302B68C6F808A02846DB68A1
:10334000EE639847336830461B6898472146284605
:103350000DF01AFB236820461B69984723685B69B8
:10336000204601B0BDE8F04F184700BF785E040862
:1033700031620408D85F04081F600408C2600408B2
:1033800074630408F0570120EC5701207047704720
:103390007047704770477047704710B598210446D2
:1033A0001DF0CBFA204610BD2DE9F0411D46036803
:1033B000BDF918701B6B04461646984723683146C2
:1033C00020465B6B98472368294620469B6B9847AD
:1033D000236839462046DB6BBDE8F0411847000002
:1033E000094A02604FF4807100228184FF21C0E904
:1033F0000122C0E90322C0E90522C0E9072280F8C2
:1034000026108262704700BF886F0408F7B5044633
:1034100025460DF00DF90027174BE76345F8403BB3
:1034200004F16C062846FFF7DBFF3046FFF7D8FFB4
:103430004FF4A0733A46009339462846F023FFF72D
:10344000B3FF271D4FF07F43A3662946384606F099
:1034500039FD32230093142230465F21FFF7A4FF89
:103460004FF0FF333846C4F89430314606F02AFD59
:10347000204603B0F0BD00BF98630408406A70475F
:10348000806A704770478B88C0690A68DB0A50F809
:1034900023001044704710B50446BAB1107B68B1E0
:1034A000537BD27A1B0203F4E0631A43236A03EBD3
:1034B00082031A888A4202D193F9020010BD05D80E
:1034C000013880B204330028F3D1F7E70020F5E794
:1034D00010B52C2104461DF030FA204610BD000026
:1034E00030B58BB00446BDF860500895BDF85C500F
:1034F00007959DF8505006959DF84C5005959DF800
:10350000485004959DF8445003959DF8405002950D
:103510009DF83C500195BDF8385000950CF08EFE9A
:10352000064B2360159BE361169B2362199B636224
:103530001A9BA36220460BB030BD00BFCC630408C9
:1035400090F82C007047704770477047704730B450
:10355000C26844685510034604EB6200D20748BFB6
:1035600062599B6830BC48BFD3581847034640682F
:1035700030B19A681AB9D86800F00100704701208C
:10358000704710B5382104461DF0D7F9204610BD0C
:1035900010B5102104461DF0D0F9204610BD10B51D
:1035A000EC2104461DF0C9F9204610BD08B590F87D
:1035B00032300BB1FEF77CFC08BD10B50446806AC2
:1035C00050B10368DB68984730B1A06A03682146B0
:1035D0009B68BDE81040184710BD70B504460D4605
:1035E00009F008FA606B58B10368DB68984738B196
:1035F000606B03682A4621469B68BDE87040184707
:1036000070BD38B500F16C03994204460D4603D1F4
:103610000BF0CCF9FFF7AAFCA434A54205D10BF0BE
:10362000C5F9BDE83840FFF7B1BC38BD70B50368D7
:1036300004461B6B154698472368294620465B6B5A
:10364000BDE870401847000040F2011181844FF638
:10365000FF710022C185018680F83210074982621D
:10366000C0E90122C0E90322C0E90522C0E907221E
:1036700080F82C2001604263704700BF3464040866
:103680002DE9F743044626460CF0D2FF0025364BC1
:10369000E56346F8403B354B2566C4E910354FF4E9
:1036A000807304F16C08A4F86430FF2304F1A407CC
:1036B00084F86630C4E91255C4E91455C4E91655B6
:1036C000A5664046FFF7C0FF3846FFF7BDFF284B11
:1036D000C4E93734274B2A46C4E9393529463046F0
:1036E000FFF7A4FF3046F021FEF72CFB30464FF4E5
:1036F000A071FEF729FB04F104094FF07F43A36694
:103700003146484606F0DEFB404687222121FFF77E
:103710008DFF022601AAADF800506946404604F12B
:10372000DC05ADF8046009F0C3F941464846C4F829
:10373000945006F0C7FB3846DC222121FFF776FFC4
:10374000012301AA69463846ADF80030ADF804609F
:1037500009F0AEF94846C4F8CC50394606F0B2FB41
:10376000204603B0BDE8F083C0640408886F0408F5
:10377000A8640408033600087047704710B5982104
:1037800004461DF0DAF8204610BD0000F7B50446E7
:1037900025460CF04DFF0027164BE76345F8403BEC
:1037A00004F16C062846FFF71BFE3046FFF718FEB3
:1037B0004FF4A0733A46009339462846F023FFF7AA
:1037C000F3FD271D4FF07F43A3662946384606F0D8
:1037D00079FB32230093142230465F21FFF7E4FD8A
:1037E000054BC4F894303846314606F06BFB204652
:1037F00003B0F0BDF46404080000FFFF7047000050
:1038000030B5164D2C68BFF35B8F14F001048FB0F8
:1038100020D128461DF093F8E0B13F230993104BC7
:103820000893104B104911480A940122CDE9064330
:103830000423CDE903320A230093CDE90B44CDE9FB
:1038400001440594FFF74CFE094839F01FF928465A
:103850001DF081F805480FB030BD00BFA421002045
:10386000DCC20408E8C20408ACC20408A821002095
:10387000FD3700087047000030B5164D2C68BFF3C7
:103880005B8F14F001048FB020D128461DF057F84B
:10389000E0B13F230993104B0893104B1049114896
:1038A0000A940122CDE906430423CDE9033214230F
:1038B0000093CDE90B44CDE901440594FFF710FED8
:1038C000094839F0E3F828461DF045F805480FB0DF
:1038D00030BD00BFD4210020E0C20408ECC20408BF
:1038E000BCC20408D82100207538000870470000C9
:1038F00030B5164D2C68BFF35B8F14F001048FB008
:1039000020D128461DF01BF8E0B13F230993104B4E
:103910000893104B104911480A940122CDE906433F
:103920000423CDE9033228230093CDE90B44CDE9EC
:1039300001440594FFF7D4FD094839F0A7F828465B
:103940001DF009F805480FB030BD00BF042200206B
:10395000E4C20408F0C20408CCC204080822002013
:10396000ED38000800207047002070470EB403B502
:1039700003AB002153F8042B01930BF063FF02B05B
:103980005DF804EB03B070470CB407B504AB53F813
:10399000042B01930BF056FF03B05DF804EB02B06B
:1039A00070470000436C10B5044673B3038F2BB906
:1039B000184B194AC521194839F04AF8C38E00EB53
:1039C00043035B8C0BB30DF0A8FC238F012B03D8B2
:1039D000134B144ACB21EEE7E28E531C9BB2092B0A
:1039E000194688BFA3F10A0104EB410140F63F10DC
:1039F000498C814209D10A2B04EB420228BF0023E3
:103A000004EB4303508C588451842046BDE8104099
:103A10000DF086BB2065040829650408D4650408F8
:103A20001E6604082C6604080DF041BB38B518BBAF
:103A3000124B13481C681349B4B122682244026037
:103A4000626822440A60A26814440F4B00221A8064
:103A500000F02AF8054600F025F80C4B1C600C4BD2
:103A60001D600C4B188007E00B4B03600B4B0B6089
:103A70000B4B1C68002CE8D138BD00BF4022002051
:103A800038220020342200203C220020005801204F
:103A90000858012004580120F8C20408F4C20408A0
:103AA000FCC20408002070470048704744220020F0
:103AB00010B5FFF7E1FE044C2060FFF719FF6060CE
:103AC000FFF79EFEA06010BD4422002010B5002428
:103AD00004600C6014601C6010BD704710B54FF49A
:103AE000AE7104461CF029FF204610BD10B50446F7
:103AF000D0F8580100F0BBF82046BDE810400AF0AD
:103B0000D7BF000010B50446FFF7F0F9014B236062
:103B1000204610BD08670408704704387047704796
:103B200010B5102104461CF008FF204610BDA0F17E
:103B30000400F5E700228260024A02601832426007
:103B4000C16070475C6704087047000010B5034B04
:103B500003600446FFF71FFC204610BD846704087D
:103B600010B50446FFF7F2FF2046C4211CF0E5FE25
:103B7000204610BD10B50446FFF748FC0C4B2360EF
:103B80004FF480720B4BA4F8BC20FF22C4F898308D
:103B900084F8BE200023C4E92733C4E92933C4E9EB
:103BA0002B33C4E92D33C4F8C030204610BD00BF0C
:103BB00084670408886F040838B5044604F1980542
:103BC000FFF7EAFB4FF01413C4F89C30284632216B
:103BD000FEF7B8F828463221FEF7B6F8044BC4F8D1
:103BE000C0302946201DBDE8384006F06BB900BF43
:103BF0000000FFFF704704387047704710B5102170
:103C000004461CF09AFE204610BDA0F10400F5E722
:103C100000228260024A026018324260C16070472E
:103C2000BC6704087047000010B5034B03600446EE
:103C3000FFF789FC204610BDE467040810B5044670
:103C4000FFF7F2FF2046EC211CF077FE204610BD66
:103C500010B50446FFF714FD014B2360204610BD4C
:103C6000E4670408FFF770BC0022026070477047E9
:103C7000704704387047704710B5102104461CF097
:103C80005CFE204610BDA0F10400F5E70022826032
:103C9000024A026018324260C16070471868040826
:103CA0007047000010B5034B03600446FFF764FD46
:103CB000204610BD4068040810B50446FFF7F2FF27
:103CC000204698211CF039FE204610BD10B5044650
:103CD000FFF75CFD014B2360204610BD40680408DF
:103CE000FFF74BBD00F000B830B5ADF2344D124BCC
:103CF000059315AD114B069326A800F02DF826A9C3
:103D0000284600F009FE01F0DDF8044601F09EF9B6
:103D10004FF00003CDE901408DF80C30009526AB43
:103D200006AA05A907A800F02DFA07A800F06FFA67
:103D3000642004F044F8F8E7586C0408B46C0408F4
:103D400001481CF057BE00BF5022002001481CF063
:103D50007DBF00BF5022002070B5044604F110055D
:103D600000F07EFF284600F07BFF002384F89433A8
:103D700004F5647004F1200308261946002201327C
:103D80000A2A41F8046FFAD128338342F5D1284634
:103D90004FF0FF3100F096FF204670BD10B504468D
:103DA00000F071FF204610BD00F088BF00F088BF12
:103DB00090F894037047152910B509D8092A07D837
:103DC0000A2404FB012200EB82004362012010BDA3
:103DD0000020FCE790F894332DE9F743044613B331
:103DE00000F06EFF21468046684600F04CFF2046FA
:103DF00000F050FF0025074607EB0519002659F88B
:103E0000043B3BB1019A0099434632442944204681
:103E1000FFF7D1FF0136042EF1D10135042DEBD18E
:103E2000002384F8943303B0BDE8F083704710306A
:103E300070472430704715290BD8092A09D80A235E
:103E400003FB012200EB8200406A083818BF012002
:103E50007047012070472DE9F0470E46194680460D
:103E6000914600F021FF0024074607EB041A0025C5
:103E7000311909EB05024046FFF7DDFF10B15AF892
:103E800025303BB90135042DF3D10134042CECD19C
:103E9000012000E00020BDE8F0872DE9F041044654
:103EA0000F4690461E46FFF7D6FF70B194F8945324
:103EB0005DB139462046424600F0E2FE31462046DA
:103EC00000F0DCFE2846BDE8F0819DF81830012B9B
:103ED00002D12046FFF77EFF0025F3E738B5002525
:103EE000044680F8205000F0C2FE2B4603222946EB
:103EF0002046FFF7B0FF84F8940338BD152908D891
:103F0000092A06D80A2303FB012200EB8200406A3B
:103F1000704707207047152970B5044611D828232B
:103F200003FB010101F12400261FA0F12805B54281
:103F300008D104F120030822483443F8042FA34297
:103F4000FBD170BD282229463BF064F92846ECE7F6
:103F50002DE9F04F8FB004460E4601F023F82146BC
:103F6000834602A800F08FFE2046039F00F0A6FEC5
:103F70004FF02809DDF808A0019004F1240309FBA3
:103F800006F93546152D13DD4FF0150904F55B785C
:103F9000A9EB06064E4515DB5546019B3A462946D8
:103FA0002046FFF758FFA8BB002D33DD013DF4E7A5
:103FB00003EB0901184628223BF02CF90346013592
:103FC0002833DFE7584601F005F824220546002192
:103FD00005A83BF039F9072204920A220EAB95FBA3
:103FE000F2F102FB115503EB8505082245F8282C58
:103FF0000DF1100C45469E46624603CA7245286084
:104000006960944605F10805F6D109F1FF39A8F178
:104010002808BFE7AA4512D0012D3A462946204676
:1040200005DC00F02DFE00200FB0BDE8F08F00F0A1
:1040300027FE2046FFF7CEFE002384F894330120AC
:10404000F2E7152938B5054609D800242246284646
:10405000FFF7F1FE10B101340A2CF7D138BD002072
:10406000FCE72DE9F34701460446684600F00BFEE5
:104070002046DDE9007800F021FE064600F022FF30
:1040800004F110058246284600F01AFEB0F1FF3F09
:10409000814638D1204600F013FE0146284600F044
:1040A000E6FD504600F0A1FE0146204600F0DFFD8F
:1040B00042463946204600F0E3FD00234246394699
:1040C0002046FFF7C8FEC0B9204600F0F9FD0146C2
:1040D000504600F0F9FD284600F0F2FD014620466A
:1040E00000F0F0FD3146204600F0C8FD4946284664
:1040F00002B0BDE8F04700F0E5BD012384F82030B0
:1041000002B0BDE8F087284600F0DAFD814620467F
:1041100000F0D6FD0146284600F0A9FD494620469C
:1041200000F0A5FD42463946204600F0A9FD0023D7
:10413000424639462046FFF78EFE0028DDD128464C
:1041400000F0BEFD0746204600F0BAFD01462846B5
:1041500000F0B8FD3946204600F0B4FD3146204657
:1041600002B0BDE8F04700F089BD000001481CF036
:1041700041BC00BF5122002001481CF067BD00BFB8
:10418000512200202DE9F843DDF82880089F876040
:104190001E46099B4661C0E903380023C0E9073386
:1041A00080F82C30436313681446C0E900120546BA
:1041B0001B681046984723683046D3F80490FFF7F1
:1041C00035FE314602462046C84723683046D3F8BC
:1041D0001090FFF72CFE01462046C8472368296A45
:1041E0005B69204698472368DE6A3B6838469B68CF
:1041F000984701462046B047236840469E6800F035
:1042000067FF01462046B0472846BDE8F8832DE900
:10421000F04104464069FFF7CBFD98B9E068656955
:1042200000F0E3FD01462846FFF758FE002800F0A5
:10423000CF806568E0682B68DE6800F053FD0146BA
:104240002846B047206900F019FF206900F022FFDE
:10425000002835D00221A06800F056FA656866692A
:104260002B6830465F68FFF7E1FD3146024628467D
:10427000B847656860692B681E69FFF7D8FD01467D
:104280002846B0476068216A03685B69984765689B
:10429000A0682B68DE6A03689B6898470146284639
:1042A000B047656820692B689E6800F011FF0146E1
:1042B0002846B047A06803681B69984784F82C001B
:1042C000206803681B6898470146206304F11800C2
:1042D00000F0CEF90146A062A06800F015FA65680A
:1042E000E0682B68DE6800F0FDFC01462846B04718
:1042F000656866692B6830465F68FFF797FD314651
:1043000002462846B847656860692B681E69FFF752
:104310008EFD01462846B047A0680368DB689847D1
:1043200094F82C306062DBB160690321FFF710FE66
:10433000B0B9656866692B6830465F68FFF776FD3F
:10434000314602462846B847656860692B681E6991
:10435000FFF76DFD334601462846BDE8F04118479A
:10436000626A1AB994F82C30002B31D0236A656840
:104370006669134423622B6830465F68FFF756FD79
:10438000314602462846B847656860692B681E6951
:10439000FFF74DFD01462846B0476068216A036873
:1043A0005B6998476568A0682B68DE6A03689B684C
:1043B000984701462846B047656820692B689E6883
:1043C00000F086FE01462846B047002384F82C30D2
:1043D000BDE8F08101481CF00DBB00BF5222002057
:1043E00001481CF033BC00BF5222002030B5034608
:1043F00014468B4204F10C0409D10A491B1A9B088C
:104400004B4323F040430C2000FB032030BD1D68CC
:1044100044F80C5C5D6844F8085C9D6844F8045CF2
:104420000C33E6E7ABAAAA2A08B5034678B1084AD6
:10443000904206D9074A904201D928F04BFF28F054
:1044400046FF0C205843BDE808401CF087BA08BD61
:10445000AAAAAA0A55555515032A08B505D9114B1C
:10446000114A1421114838F0F3FA012B03D9104BEB
:104470000D4A1521F6E759B10239042910D8502107
:1044800001FB02F0282202FB03000A4B184408BD7E
:10449000502101FB02F0282202FB0300064BF5E746
:1044A0000020F4E76C6804088A680408D9680408E6
:1044B00016690408D46A040894690408032A0CBF26
:1044C000481C01F1FF30431C03D0042808BF002022
:1044D00070470320704710B5DDE90214012C0BD0A2
:1044E000022C04D05CB90160013B436002E0C0E9EA
:1044F00000130132826010BD01600133F5E70160F5
:10450000F3E7000010B504461046D4E900239B1AD7
:104510000A4A0B4C9B105343E21A8A4201D228F0FC
:10452000E2FE994238BF19465B1804D2A34228BF65
:104530002346184610BD2046FCE700BFABAAAAAA36
:10454000AAAAAA0A2DE9F04F994687B0002304468B
:10455000C0E9003383603C200E460192DDE91087FC
:104560009DF84CA01CF0FAF9D4F800B0616805463B
:1045700002465846FFF73AFFBBF1000F05D0A1688D
:104580005846A1EB0B011CF0D8F905F13C03C4E936
:104590000055A36017B1BB1E042B5FD8BAF1000F02
:1045A00025D0129A41463046FFF788FFD31E18BF28
:1045B00001233946824642463046FFF74DFF00F15F
:1045C0002803074603933B68019A02EB030BD4E9E7
:1045D00001527B6895424B440DD0C5E900A3C5F854
:1045E00008B00C356560039B08379F42EBD120462D
:1045F00007B0BDE8F08F1D4A059301212046FFF763
:1046000081FFD4F800800290A5EB08010491FFF728
:104610000BFF0499059B40F801A04218C2E9013B39
:104620002946024606464046FFF7E0FE294600F1CD
:104630000C022846FFF7DAFE0546B8F1000F05D058
:10464000A1684046A1EB08011CF077F9029A0C23FF
:10465000C4E9006503FB0266A660C4E7019BAB608A
:10466000C5E900890C356560C1E700BF32690408FF
:104670007A2927DC60290DDC20290CBF05200720C2
:1046800070476FF47A731944022921D8DFE801F0EA
:10469000262418006139192918D8DFE801F01D1700
:1046A0001B11190F171717171717171717170D17AC
:1046B0001F1717171B19170D042070470520704787
:1046C00001207047A1F57A73032BDAD907207047D0
:1046D0000320704706207047002070470220704773
:1046E000034A026040F2011281608281704700BF7C
:1046F0005469040810B50446006818B1A168091A85
:104700001CF01BF9204610BD2DE9F043044691B082
:104710008946816805A8FFF741FBA068DDE90578B7
:10472000FFF742FB00260546A068FFF73FFBCDE9F7
:1047300007660996B9F1060F0AD8DFE809F02121CA
:104740000F42422B0400637B13B1A068FFF789FC82
:1047500007A8FFF7CFFF11B0BDE8F0830221CDE934
:10476000005143463A46211D0DA8FFF7B4FE012330
:1047700000930F99A068DDE90D32FFF78EFBE7E7A4
:104780004346CDE900593A46211D0DA8FFF7A3FE87
:104790000023EDE70221CDE9005143463A46211DB1
:1047A0000DA8FFF798FE01250095DDE90D320F9960
:1047B000A068FFF772FB0028CAD00F9B01330F934C
:1047C000F2E7267B3A46CDE900504346211DCDE96C
:1047D00002960AA8FFF7B6FE0C9B0A9E0B9F08974D
:1047E00000250DA8CDE90935CDE90D55CDE90B55CD
:1047F0000F950796FFF77EFF0AA8FFF77BFFBF1B09
:10480000094BBF105F43A846BD42A1D0CDF8008040
:10481000D6E90032B168A068FFF73FFB0C360028EC
:1048200096D10135F0E700BFABAAAAAA01481CF057
:10483000E1B800BF5322002001481CF007BA00BFB6
:104840005322002001481CF0D5B800BF542200209C
:1048500001481CF0FBB900BF5422002001481CF0A5
:10486000C9B800BF5522002001481CF0EFB900BFB5
:104870005522002001481CF0BDB800BF5622002080
:1048800001481CF0E3B900BF5622002001481CF08B
:10489000B1B800BF5722002001481CF0D7B900BFB3
:1048A0005722002000207047C26B036C0132092B95
:1048B000C2630BDC591C053350F823309A424FF089
:1048C000000303DBC0E90F3101207047002070476F
:1048D000006C7047704770B5054615240026A8681F
:1048E0002146FFF7AEFB28B1A8682146FFF713FB6E
:1048F0006436F4E7013C012CF1D1304670BD08B5B7
:104900008068FFF796FA012008BD10B544210446DF
:104910001CF013F8204610BD10B50446FFF7E0FE6A
:10492000094B236001220023C4E90F32C4E9043398
:104930007823C4E90633C4E90833C4E90A33C4E977
:104940000C33A363204610BD7869040801481CF0AD
:1049500051B800BF5822002001481CF077B900BFB1
:104960005822002000F1080373B5044603600D4689
:1049700011B90F4828F0B4FC0846FBF799FC0F2842
:1049800005EB0006019007D9002201A920462FF06F
:10499000CBF8019B2060A3603246294620682FF0A7
:1049A0005FF9019B226863600021D15402B070BDA1
:1049B000146C040830B5254D00F563740246116887
:1049C00052F8043F01F0004123F000430B43D2F8BA
:1049D000301681EA530113F0010318BF2B465940EA
:1049E000944242F8041CEAD1184D021F00F22C64D4
:1049F000D2F89033D2F8941303F0004321F0004131
:104A00000B4352F8041F81EA530113F0010318BF4E
:104A10002B464B409442C2F88C33E9D1D0F8BC39D4
:104A200002680A4922F0004203F000431343D0F821
:104A3000302682EA530213F0010318BF0B465A4096
:104A40000023C0F8BC29C0F8C03930BDDFB00899D8
:104A5000D0F8C039B3F51C7F10B5044601D3FFF779
:104A6000A9FFD4F8C03909485A1CC4F8C02954F821
:104A70002320074B82EAD22203EAC213534000EA02
:104A8000C330584080EA904010BD00BF0000C6EF20
:104A900080562C9D10B586B01349144C6846FFF71C
:104AA00061FF694612482EF06DFE68462FF05EF8F1
:104AB0000F482EF0ABFE0F4B0121186018461A6804
:104AC00082EA927204FB02120131B1F51C7F43F8B5
:104AD000042FF4D1084BC0F8C0190A220421C3E9FD
:104AE000001206B010BD00BF466C04086589076C53
:104AF000282C0020642200205C22002001482EF097
:104B000083BE00BF282C002000207047704710B5DE
:104B1000042104461BF011FF204610BD704770476A
:104B200070477047014839F09FBE00BF646C0408AD
:104B30002DE9F0411148DFF84C800F46164639F058
:104B400093FE02250024224629463846FFF7D6F96F
:104B500001340146404639F087FE0A2CF3D1204645
:104B6000013539F0CFFE162DECD1304600F0A8F813
:104B7000BDE8F0410146024839F076BE7E6C04087B
:104B80009E6C0408986C040810B5042104461BF0C0
:104B9000D4FE204610BD000001481BF02BBF00BF13
:104BA000EC35002001481CF051B800BFEC35002066
:104BB00000F1080373B5044603600D4611B90F48B0
:104BC00028F08EFB0846FBF773FB0F2805EB000669
:104BD000019007D9002201A920462EF0A5FF019BD4
:104BE0002060A3603246294620682FF039F8019BE7
:104BF000226863600021D15402B070BD146C0408B7
:104C000010B50B4C0B492046FFF7D2FF04F11800FA
:104C10000949FFF7CDFF04F130000849FFF7C8FF4D
:104C200004F148000649BDE81040FFF7C1BF00BFCE
:104C3000F0350020F06C0408F86C0408006D0408DE
:104C4000056D040870B5054D04241826013C04D3F5
:104C500006FB04502EF08AFFF8E770BDF035002007
:104C60000022C0E9002282600322C2607047002354
:104C70000322C0E90232016043607047416070471F
:104C8000C0E9021270470346D1E9020183E803003C
:104C900018467047D0E90020024B53F8223003EB4E
:104CA00080107047146D04080268034B53F822000B
:104CB00000EB8110704700BF146D04084068704716
:104CC000006870470160704710B5031F00F11802BB
:104CD00053F8044F8C4202BF046801601C60934289
:104CE000F6D110BD7047F8B5D1E900577C1B631CA5
:104CF000064616D0FFF7ACFE0134A0FB04309C4200
:104D000007D96A1ED21BB2FBF4F104FB11279F42A4
:104D100001D82844F8BD3046FFF79AFEA4FB0030C6
:104D2000F5E7FFF795FEF4E788422DE9F7430446DF
:104D30000D46164633D00B1A9B10A3FB0312071D1A
:104D4000A2B14FF00008AF4229D03B1B9B1069462F
:104D500030460193CDF80080FFF7C5FF3B6854F85B
:104D6000202047F8042B44F82030ECE713F001032F
:104D70000ED1009300F108070123694630460193E4
:104D8000FFF7B1FF636854F82020626044F82030D8
:104D90004FF000083B46AB4207F1080702D103B0D1
:104DA000BDE8F0831B1B9B1003F1020903FB099371
:104DB000013B694630460193CDF80080FFF793FF31
:104DC00057F8081CB0FBF9F254F8223047F8083CB9
:104DD00009FB120044F8221057F8043C54F8202034
:104DE00047F8042C44F82030D4E738B5836B062B01
:104DF000044608DD00F13C0200F138011C30FFF7E9
:104E000093FF0023A3632146182251F8045B204638
:104E10003AF000FAA36B04EB83020133D269A2617A
:104E2000A363284638BD000070B5244AADF51E6D59
:104E3000D11F044600F13C0503A801902EF010FF9D
:104E400007230293019B0022DA7101A907A82EF023
:104E500099FC01A82EF08AFE07A82EF0D7FCE0638B
:104E60001748294601220B6883EA937300FB03234A
:104E70000132B2F51C7F41F8043FF4D1C4F8FC299B
:104E800007A82EF0C1FC0023A363221F42F8043FB1
:104E9000D3610133072BF9D104F11C062A463146B0
:104EA0002046FFF741FF30462A4604F13801FFF75C
:104EB0003BFF20460DF51E6D70BD00BF4D6C040814
:104EC0006589076C10B5094C2368BFF35B8FDB075E
:104ED00009D420461BF033FD28B10548FFF7A4FF95
:104EE00020461BF038FD024810BD00BF50360020A0
:104EF0005436002010B5094C0160012201460B68B0
:104F000083EA937304FB03230132B2F51C7F41F85B
:104F1000043FF4D1C0F8C02910BD00BF6589076CFB
:104F200030B5ADF59C5D83B041F271510446FFF799
:104F3000E1FF1B4A00256FF00043D11F02A8C4F80F
:104F4000C839C4F8C45900902EF08AFE0723019393
:104F5000009B6946DD710DF6C4102EF013FC684607
:104F60002EF004FE0DF6C4102EF050FC01466846EB
:104F7000FFF7C0FF0DF6C4102EF046FC40F6C41239
:104F8000694620463CF064F942F210732046C4F8AA
:104F9000C459C4F8C8390DF59C5D03B030BD00BFDD
:104FA0004D6C040810B5094C2368BFF35B8FDB0719
:104FB00009D420461BF0C3FC28B10548FFF7B0FF19
:104FC00020461BF0C8FC024810BD00BF5440002022
:104FD00058400020F8B5D0F8C879D0F8C4597C1BE7
:104FE000631C064616D0FFF733FD0134A0FB0430E6
:104FF0009C4207D96A1ED21BB2FBF4F104FB1127B5
:105000009F4201D82844F8BD3046FFF721FDA4FB9C
:105010000030F5E7FFF71CFDF4E713B5002200238D
:105020000446C0E90023C0E90223C0E9042368461E
:105030001DF082F9DDE900232046C4E90023C4E91C
:105040000223C4E9042302B010BD000010B5094CCE
:105050002368BFF35B8FDB0709D420461BF06FFC8E
:1050600028B10548FFF7D9FF20461BF074FC024821
:1050700010BD00BF244A0020284A002013B5044672
:1050800068461DF059F9DDE90023C4E9042302B0A4
:1050900010BD0000D0E9042313B50446D0E9021086
:1050A000521A094963EB00030020914270EB03039D
:1050B00007DA68461DF040F9DDE90023C4E9022360
:1050C000012002B010BD00BFFF64CD1D0000000034
:1050D000D0E9043110B5D0E90024981A61EB04013D
:1050E00003A3D3E90023FBF7EFFD10BDAFF300806E
:1050F00000CA9A3B00000000F02070474FF4A070F7
:1051000070472920FDF7AEBA2820FDF7ABBA08B5E5
:10511000FDF77CFACA20FDF7A5FAC320FDF786FA51
:105120000820FDF783FA5020FDF780FACF20FDF725
:1051300099FA0020FDF77AFAC120FDF777FA3020BE
:10514000FDF774FAED20FDF78DFA6420FDF76EFA95
:105150000320FDF76BFA1220FDF768FA8120FDF7B6
:1051600065FAE820FDF77EFA8520FDF75FFA00205A
:10517000FDF75CFA7820FDF759FACB20FDF772FABB
:105180003920FDF753FA2C20FDF750FA0020FDF7E7
:105190004DFA3420FDF74AFA0220FDF747FAF720CE
:1051A000FDF760FA2020FDF741FAEA20FDF75AFAF0
:1051B0000020FDF73BFA0020FDF738FAB120FDF79B
:1051C00051FA0020FDF732FA1B20FDF72FFAB62026
:1051D000FDF748FA0A20FDF729FAA220FDF726FA82
:1051E000C020FDF73FFA1020FDF720FAC120FDF79F
:1051F00039FA1020FDF71AFAC520FDF733FA4520D9
:10520000FDF714FA1520FDF711FAC720FDF72AFA69
:105210009020FDF70BFA3620FDF724FAC820FDF7A1
:1052200005FAF220FDF71EFA0020FDF7FFF9B02085
:10523000FDF718FAC220FDF7F9F9B620FDF712FACA
:105240000A20FDF7F3F9A720FDF7F0F92720FDF775
:10525000EDF90420FDF7EAF92A20FDF703FA002012
:10526000FDF7E4F90020FDF7E1F90020FDF7DEF994
:10527000EF20FDF7DBF92B20FDF7F4F90020FDF717
:10528000D5F90020FDF7D2F90120FDF7CFF93F2035
:10529000FDF7CCF9F620FDF7E5F90120FDF7C6F999
:1052A0000020FDF7C3F90620FDF7C0F92C20FDF71B
:1052B000D9F9C820FDF724FA2620FDF7D3F90120FB
:1052C000FDF7B4F9E020FDF7CDF90F20FDF7AEF9B9
:1052D0002920FDF7ABF92420FDF7A8F90C20FDF7F4
:1052E000A5F90E20FDF7A2F90920FDF79FF94E2040
:1052F000FDF79CF97820FDF799F93C20FDF796F928
:105300000920FDF793F91320FDF790F90520FDF72B
:105310008DF91720FDF78AF91120FDF787F9002094
:10532000FDF784F9E120FDF79DF90020FDF77EF9F6
:105330001620FDF77BF91B20FDF778F90420FDF717
:1053400075F91120FDF772F90720FDF76FF931208B
:10535000FDF76CF93320FDF769F94220FDF766F996
:105360000520FDF763F90C20FDF760F90A20FDF731
:105370005DF92820FDF75AF92F20FDF757F90F2086
:10538000FDF754F91120FDF76DF9C820FDF7B8F9C4
:105390002920FDF767F9BDE808402C20FDF762B928
:1053A00008B5FDF733F90321D320FDF777F980B273
:1053B00008BD10B5C4B2022203212046FDF7DCF877
:1053C0000A20FDF721F9204600220321FDF7D4F839
:1053D000BDE810400220FDF717B938B50446E4B225
:1053E000FDF7C8F800212046FDF7DEF8012105464B
:1053F0002046FDF7D9F840EA052080B238BD10B547
:10540000C4B240212046FDF7CFF8030607D54C2152
:105410002046FDF7C9F8003818BF012010BD012251
:105420004B212046FDF7A8F8204600224B21FDF72E
:10543000A3F80020F2E773B50423C4B20E46154664
:10544000D7210DEB03022046FDF7C8F8019B1BBADC
:105450001A0DC3F30B23328020462B8001224B21EF
:10546000FDF78AF800224B212046FDF785F802B0AF
:1054700070BD000010B50A4A1378984204460DD05A
:10548000517888420AD00BB141B90123D454FDF7B9
:1054900071F82046BDE81040FFF78BBF10BD00BF7C
:1054A000404A002010B5C4B209212046FDF77CF81F
:1054B00040F00102D2B220460921BDE81040FDF7BC
:1054C0005BB810B5C4B209212046FDF76DF809217B
:1054D00000F0FE022046BDE81040FDF74DB838B59B
:1054E000C4B20D4620460A21FDF75EF840EA0502E7
:1054F000D2B220460A21BDE83840FDF73DB810B5CC
:105500000446FDF738F820461F21FFF7E8FF204644
:10551000BDE81040FFF7C6BF38B5C4B20D462046FF
:105520000A21FDF741F820EA0502D2B220460A21FD
:10553000BDE83840FDF720B810B50446FFF7C1FFBD
:1055400020461F21BDE81040FFF7E6BF10B5C0B2EE
:105550000C460B21FDF728F8204010BD1F21FFF756
:10556000F5BF0A46C0B20B21FDF706B81F21FFF7B1
:10557000F8BF38B5C4B20D4620461721FDF714F820
:1055800020EA0502D2B220461721BDE83840FCF7D8
:10559000F3BF70B5C4B2064604212046FDF704F8F7
:1055A000042100F0FB0205462046FCF7E5FF3046EB
:1055B000F021FFF7DEFF05F0F80220460421FCF79A
:1055C000DBFF492220212046FCF7D6FF0220FDF711
:1055D0001BF8204601222121FCF7CEFF20469A220B
:1055E0004121FCF7C9FF204601224A21FCF7C4FFF4
:1055F000204601224B21FCF7BFFF204600224B2111
:10560000FCF7BAFF204601225621FCF7B5FF2046E1
:1056100001225821FCF7B0FF204601224021FCF76F
:10562000ABFF2046FF220B21FCF7A6FFBDE8704030
:105630000220FCF7E9BF0000054BD3F8882042F4B4
:105640007002C3F888204FF000629A60704700BF74
:1056500000ED00E008B50B4B1A6842F400721A60C6
:105660001A6842F480621A601A6842F480721A6002
:10567000032000F02FF80020FDF7BAFAFDF74EF8EE
:10568000002008BD003C0240034A044B11681B780F
:105690000B441360704700BF444A00207C07002081
:1056A000014B1868704700BF444A002038B50446D3
:1056B000FFF7F6FF631C1CBF054B1B78054618BFA0
:1056C000E418FFF7EDFF431BA342FAD338BD00BF38
:1056D0007C0700200749CA6822F4E0620302120432
:1056E00003F4E063120C134343F0BF6343F400334D
:1056F000CB60704700ED00E0164B30B5DC68C4F3BA
:105700000224C4F10703251D042B28BF0423062D02
:105710004FF0FF358CBF033C002405FA03F321EA68
:105720000303A54022EA0502A340002843EA02033E
:10573000ACBF00F16040084A4FEA0313B8BF00F065
:105740000F00DBB2AABF00F56140135480F80033AC
:1057500030BD00BF00ED00E014ED00E0002807DBE5
:105760004109044A00F01F000123834042F8213020
:10577000704700BF00E100E010B5044650B1437926
:1057800003F0FF0213B90271FCF7E8FF0123637114
:10579000002010BD0120FCE710B5044630B390F89E
:1057A000393003F0FF021BB980F83820FCF7EEFF18
:1057B00022686168022384F83930136823F4403387
:1057C0000B431360536BA16823F007030B43536330
:1057D000136CE16823F47F5323F03F030B431364FE
:1057E00000200123E06384F8393010BD0120FCE77C
:1057F00070477047036870B55E681D68F20704461D
:1058000014D5E90512D51A6822F480721A60C26BA9
:1058100042F00102C26301229A60042380F8393009
:10582000002380F83830436903B19847B20616D593
:10583000AB0414D523681A6822F400521A6020229F
:105840009A60E36B43F00203E363042384F8393086
:10585000002384F8383063690BB12046984730073D
:1058600016D5290514D523681A6822F400621A6037
:1058700008229A60E36B43F00403E363042384F893
:105880003930002384F8383063690BB120469847DB
:1058900072070BD56B0509D523681A6822F480625C
:1058A0001A6004229A602046FFF7A2FFB00714D5C1
:1058B000A90512D523681A6822F400721A60022220
:1058C0009A60E36BE363012384F83930002384F8A2
:1058D000383023690BB120469847F20613D5EB0404
:1058E00011D523681A6822F480521A6010229A6037
:1058F000E36BE363012384F83930002384F8383004
:105900002046FFF776FF70BDF0B590F83820012AE9
:1059100003464FF002002BD0012283F8382083F891
:10592000390003EB0112D2E90740556A174F44EAE8
:105930000040093C012C9CBF05F07F4210434FEA18
:1059400001161A6888BF40EA056091B9516A39406A
:1059500001435162012C9969916103D8596A21F080
:105960007F4191620122002083F8392083F83800BA
:10597000F0BDD16939400143D1619919012C896980
:1059800011619CBF25F07F451562EBE7F0FFFC003D
:105990002DE9F74FDFF8BC916C4A00230D68012414
:1059A0009C4004EA0506AC4340F0B7804D680327ED
:1059B00005F003044FEA430807FA08FC671E012FAD
:1059C0006FEA0C0C34D8876807EA0C0ECF6807FA28
:1059D00008F747EA0E078760476827EA060EC5F30F
:1059E00000179F4047EA0E074760C76807EA0C0E9A
:1059F0008F6807FA08F747EA0E07022CC76019D12B
:105A00004FEAD30A00EB8A0A03F0070BDAF820709A
:105A10004FEA8B0B4FF00F0E0EFA0BFE27EA0E0E1D
:105A20000F6907FA0BF747EA0E07CAF8207001E082
:105A3000032CDAD1076804FA08F407EA0C073C43A0
:105A400015F4403F046068D000240194D9F8444024
:105A500044F48044C9F84440D9F8444023F0030793
:105A600007F1804704F4804407F59C37019403F064
:105A7000030C019CD7F808E04FEA8C0C0F2404FAC1
:105A80000CF42EEA040E324CA0424DD004F5806492
:105A9000A0424BD004F58064A04249D004F5806454
:105AA000A04247D004F58064A04245D004F580644C
:105AB000A04243D004F58064A04241D004F5806444
:105AC000A0423FD004F58064A0423DD004F580643C
:105AD000A04214BF0A24092404FA0CF444EA0E0478
